{
  "abi": [
    {
      "inputs": [
        {
          "internalType": "string",
          "name": "_uri",
          "type": "string"
        }
      ],
      "stateMutability": "nonpayable",
      "type": "constructor"
    },
    {
      "anonymous": false,
      "inputs": [
        {
          "indexed": true,
          "internalType": "address",
          "name": "account",
          "type": "address"
        },
        {
          "indexed": true,
          "internalType": "address",
          "name": "operator",
          "type": "address"
        },
        {
          "indexed": false,
          "internalType": "bool",
          "name": "approved",
          "type": "bool"
        }
      ],
      "name": "ApprovalForAll",
      "type": "event"
    },
    {
      "anonymous": false,
      "inputs": [
        {
          "indexed": true,
          "internalType": "address",
          "name": "to",
          "type": "address"
        },
        {
          "indexed": true,
          "internalType": "uint256",
          "name": "id",
          "type": "uint256"
        },
        {
          "indexed": false,
          "internalType": "uint256",
          "name": "amount",
          "type": "uint256"
        }
      ],
      "name": "Erc1155ForMinterService_Mint",
      "type": "event"
    },
    {
      "anonymous": false,
      "inputs": [
        {
          "indexed": true,
          "internalType": "bytes32",
          "name": "role",
          "type": "bytes32"
        },
        {
          "indexed": true,
          "internalType": "bytes32",
          "name": "previousAdminRole",
          "type": "bytes32"
        },
        {
          "indexed": true,
          "internalType": "bytes32",
          "name": "newAdminRole",
          "type": "bytes32"
        }
      ],
      "name": "RoleAdminChanged",
      "type": "event"
    },
    {
      "anonymous": false,
      "inputs": [
        {
          "indexed": true,
          "internalType": "bytes32",
          "name": "role",
          "type": "bytes32"
        },
        {
          "indexed": true,
          "internalType": "address",
          "name": "account",
          "type": "address"
        },
        {
          "indexed": true,
          "internalType": "address",
          "name": "sender",
          "type": "address"
        }
      ],
      "name": "RoleGranted",
      "type": "event"
    },
    {
      "anonymous": false,
      "inputs": [
        {
          "indexed": true,
          "internalType": "bytes32",
          "name": "role",
          "type": "bytes32"
        },
        {
          "indexed": true,
          "internalType": "address",
          "name": "account",
          "type": "address"
        },
        {
          "indexed": true,
          "internalType": "address",
          "name": "sender",
          "type": "address"
        }
      ],
      "name": "RoleRevoked",
      "type": "event"
    },
    {
      "anonymous": false,
      "inputs": [
        {
          "indexed": true,
          "internalType": "address",
          "name": "operator",
          "type": "address"
        },
        {
          "indexed": true,
          "internalType": "address",
          "name": "from",
          "type": "address"
        },
        {
          "indexed": true,
          "internalType": "address",
          "name": "to",
          "type": "address"
        },
        {
          "indexed": false,
          "internalType": "uint256[]",
          "name": "ids",
          "type": "uint256[]"
        },
        {
          "indexed": false,
          "internalType": "uint256[]",
          "name": "values",
          "type": "uint256[]"
        }
      ],
      "name": "TransferBatch",
      "type": "event"
    },
    {
      "anonymous": false,
      "inputs": [
        {
          "indexed": true,
          "internalType": "address",
          "name": "operator",
          "type": "address"
        },
        {
          "indexed": true,
          "internalType": "address",
          "name": "from",
          "type": "address"
        },
        {
          "indexed": true,
          "internalType": "address",
          "name": "to",
          "type": "address"
        },
        {
          "indexed": false,
          "internalType": "uint256",
          "name": "id",
          "type": "uint256"
        },
        {
          "indexed": false,
          "internalType": "uint256",
          "name": "value",
          "type": "uint256"
        }
      ],
      "name": "TransferSingle",
      "type": "event"
    },
    {
      "anonymous": false,
      "inputs": [
        {
          "indexed": false,
          "internalType": "string",
          "name": "value",
          "type": "string"
        },
        {
          "indexed": true,
          "internalType": "uint256",
          "name": "id",
          "type": "uint256"
        }
      ],
      "name": "URI",
      "type": "event"
    },
    {
      "inputs": [],
      "name": "ADMIN",
      "outputs": [
        {
          "internalType": "bytes32",
          "name": "",
          "type": "bytes32"
        }
      ],
      "stateMutability": "view",
      "type": "function"
    },
    {
      "inputs": [],
      "name": "DEFAULT_ADMIN_ROLE",
      "outputs": [
        {
          "internalType": "bytes32",
          "name": "",
          "type": "bytes32"
        }
      ],
      "stateMutability": "view",
      "type": "function"
    },
    {
      "inputs": [],
      "name": "MINTER",
      "outputs": [
        {
          "internalType": "bytes32",
          "name": "",
          "type": "bytes32"
        }
      ],
      "stateMutability": "view",
      "type": "function"
    },
    {
      "inputs": [
        {
          "internalType": "address",
          "name": "account",
          "type": "address"
        },
        {
          "internalType": "uint256",
          "name": "id",
          "type": "uint256"
        }
      ],
      "name": "balanceOf",
      "outputs": [
        {
          "internalType": "uint256",
          "name": "",
          "type": "uint256"
        }
      ],
      "stateMutability": "view",
      "type": "function"
    },
    {
      "inputs": [
        {
          "internalType": "address[]",
          "name": "accounts",
          "type": "address[]"
        },
        {
          "internalType": "uint256[]",
          "name": "ids",
          "type": "uint256[]"
        }
      ],
      "name": "balanceOfBatch",
      "outputs": [
        {
          "internalType": "uint256[]",
          "name": "",
          "type": "uint256[]"
        }
      ],
      "stateMutability": "view",
      "type": "function"
    },
    {
      "inputs": [],
      "name": "exitMinterRole",
      "outputs": [],
      "stateMutability": "nonpayable",
      "type": "function"
    },
    {
      "inputs": [
        {
          "internalType": "bytes32",
          "name": "role",
          "type": "bytes32"
        }
      ],
      "name": "getRoleAdmin",
      "outputs": [
        {
          "internalType": "bytes32",
          "name": "",
          "type": "bytes32"
        }
      ],
      "stateMutability": "view",
      "type": "function"
    },
    {
      "inputs": [
        {
          "internalType": "address",
          "name": "_admin",
          "type": "address"
        }
      ],
      "name": "grantAdmin",
      "outputs": [],
      "stateMutability": "nonpayable",
      "type": "function"
    },
    {
      "inputs": [
        {
          "internalType": "address",
          "name": "_minter",
          "type": "address"
        }
      ],
      "name": "grantMinter",
      "outputs": [],
      "stateMutability": "nonpayable",
      "type": "function"
    },
    {
      "inputs": [
        {
          "internalType": "bytes32",
          "name": "role",
          "type": "bytes32"
        },
        {
          "internalType": "address",
          "name": "account",
          "type": "address"
        }
      ],
      "name": "grantRole",
      "outputs": [],
      "stateMutability": "nonpayable",
      "type": "function"
    },
    {
      "inputs": [
        {
          "internalType": "bytes32",
          "name": "role",
          "type": "bytes32"
        },
        {
          "internalType": "address",
          "name": "account",
          "type": "address"
        }
      ],
      "name": "hasRole",
      "outputs": [
        {
          "internalType": "bool",
          "name": "",
          "type": "bool"
        }
      ],
      "stateMutability": "view",
      "type": "function"
    },
    {
      "inputs": [
        {
          "internalType": "address",
          "name": "account",
          "type": "address"
        },
        {
          "internalType": "address",
          "name": "operator",
          "type": "address"
        }
      ],
      "name": "isApprovedForAll",
      "outputs": [
        {
          "internalType": "bool",
          "name": "",
          "type": "bool"
        }
      ],
      "stateMutability": "view",
      "type": "function"
    },
    {
      "inputs": [
        {
          "internalType": "address",
          "name": "to",
          "type": "address"
        },
        {
          "internalType": "uint256",
          "name": "id",
          "type": "uint256"
        },
        {
          "internalType": "uint256",
          "name": "amount",
          "type": "uint256"
        }
      ],
      "name": "mint",
      "outputs": [],
      "stateMutability": "nonpayable",
      "type": "function"
    },
    {
      "inputs": [
        {
          "internalType": "address[]",
          "name": "to",
          "type": "address[]"
        },
        {
          "internalType": "uint256[]",
          "name": "id",
          "type": "uint256[]"
        },
        {
          "internalType": "uint256[]",
          "name": "amount",
          "type": "uint256[]"
        }
      ],
      "name": "multiAddressMint",
      "outputs": [],
      "stateMutability": "nonpayable",
      "type": "function"
    },
    {
      "inputs": [
        {
          "internalType": "bytes32",
          "name": "role",
          "type": "bytes32"
        },
        {
          "internalType": "address",
          "name": "account",
          "type": "address"
        }
      ],
      "name": "renounceRole",
      "outputs": [],
      "stateMutability": "nonpayable",
      "type": "function"
    },
    {
      "inputs": [
        {
          "internalType": "address",
          "name": "_admin",
          "type": "address"
        }
      ],
      "name": "revokeAdmin",
      "outputs": [],
      "stateMutability": "nonpayable",
      "type": "function"
    },
    {
      "inputs": [
        {
          "internalType": "address",
          "name": "_minter",
          "type": "address"
        }
      ],
      "name": "revokeMinter",
      "outputs": [],
      "stateMutability": "nonpayable",
      "type": "function"
    },
    {
      "inputs": [
        {
          "internalType": "bytes32",
          "name": "role",
          "type": "bytes32"
        },
        {
          "internalType": "address",
          "name": "account",
          "type": "address"
        }
      ],
      "name": "revokeRole",
      "outputs": [],
      "stateMutability": "nonpayable",
      "type": "function"
    },
    {
      "inputs": [
        {
          "internalType": "address",
          "name": "from",
          "type": "address"
        },
        {
          "internalType": "address",
          "name": "to",
          "type": "address"
        },
        {
          "internalType": "uint256[]",
          "name": "ids",
          "type": "uint256[]"
        },
        {
          "internalType": "uint256[]",
          "name": "amounts",
          "type": "uint256[]"
        },
        {
          "internalType": "bytes",
          "name": "data",
          "type": "bytes"
        }
      ],
      "name": "safeBatchTransferFrom",
      "outputs": [],
      "stateMutability": "nonpayable",
      "type": "function"
    },
    {
      "inputs": [
        {
          "internalType": "address",
          "name": "from",
          "type": "address"
        },
        {
          "internalType": "address",
          "name": "to",
          "type": "address"
        },
        {
          "internalType": "uint256",
          "name": "id",
          "type": "uint256"
        },
        {
          "internalType": "uint256",
          "name": "amount",
          "type": "uint256"
        },
        {
          "internalType": "bytes",
          "name": "data",
          "type": "bytes"
        }
      ],
      "name": "safeTransferFrom",
      "outputs": [],
      "stateMutability": "nonpayable",
      "type": "function"
    },
    {
      "inputs": [
        {
          "internalType": "address",
          "name": "operator",
          "type": "address"
        },
        {
          "internalType": "bool",
          "name": "approved",
          "type": "bool"
        }
      ],
      "name": "setApprovalForAll",
      "outputs": [],
      "stateMutability": "nonpayable",
      "type": "function"
    },
    {
      "inputs": [
        {
          "internalType": "string",
          "name": "uri",
          "type": "string"
        }
      ],
      "name": "setURI",
      "outputs": [],
      "stateMutability": "nonpayable",
      "type": "function"
    },
    {
      "inputs": [
        {
          "internalType": "bytes4",
          "name": "interfaceId",
          "type": "bytes4"
        }
      ],
      "name": "supportsInterface",
      "outputs": [
        {
          "internalType": "bool",
          "name": "",
          "type": "bool"
        }
      ],
      "stateMutability": "view",
      "type": "function"
    },
    {
      "inputs": [
        {
          "internalType": "uint256",
          "name": "",
          "type": "uint256"
        }
      ],
      "name": "uri",
      "outputs": [
        {
          "internalType": "string",
          "name": "",
          "type": "string"
        }
      ],
      "stateMutability": "view",
      "type": "function"
    }
  ],
  "bytecode": {
    "object": "0x60806040523480156200001157600080fd5b50604051620023d7380380620023d783398101604081905262000034916200016c565b806200004081620000a0565b506200006d7fdf8b4c520ffe197c5343c6f5aec59570151ef9a492f2c624fd45ddde6135ec4233620000b2565b620000997ff0887ba65ee2024ea881d91b74c2450ef19e1557f03bed3ea9f16b037cbe2dc933620000b2565b506200039c565b6002620000ae8282620002d0565b5050565b60008281526003602090815260408083206001600160a01b038516845290915290205460ff16620000ae5760008281526003602090815260408083206001600160a01b03851684529091529020805460ff19166001179055620001123390565b6001600160a01b0316816001600160a01b0316837f2f8788117e7eff1d82e926ec794901d17c78024a50270940304540a733656f0d60405160405180910390a45050565b634e487b7160e01b600052604160045260246000fd5b600060208083850312156200018057600080fd5b82516001600160401b03808211156200019857600080fd5b818501915085601f830112620001ad57600080fd5b815181811115620001c257620001c262000156565b604051601f8201601f19908116603f01168101908382118183101715620001ed57620001ed62000156565b8160405282815288868487010111156200020657600080fd5b600093505b828410156200022a57848401860151818501870152928501926200020b565b600086848301015280965050505050505092915050565b600181811c908216806200025657607f821691505b6020821081036200027757634e487b7160e01b600052602260045260246000fd5b50919050565b601f821115620002cb57600081815260208120601f850160051c81016020861015620002a65750805b601f850160051c820191505b81811015620002c757828155600101620002b2565b5050505b505050565b81516001600160401b03811115620002ec57620002ec62000156565b6200030481620002fd845462000241565b846200027d565b602080601f8311600181146200033c5760008415620003235750858301515b600019600386901b1c1916600185901b178555620002c7565b600085815260208120601f198616915b828110156200036d578886015182559484019460019091019084016200034c565b50858210156200038c5787850151600019600388901b60f8161c191681555b5050505050600190811b01905550565b61202b80620003ac6000396000f3fe608060405234801561001057600080fd5b50600436106101575760003560e01c806336568abe116100c3578063d50000721161007c578063d5000072146102f8578063d547741f14610300578063e985e9c514610313578063f02007801461034f578063f242432a14610362578063fe6d81241461037557600080fd5b806336568abe146102845780634e1273f41461029757806391d14854146102b7578063a217fddf146102ca578063a22cb465146102d2578063cfbd4885146102e557600080fd5b8063261707fa11610115578063261707fa146102105780632a0acc6a146102235780632d345670146102385780632eb2c2d61461024b5780632f2ff15d1461025e57806335bb3e161461027157600080fd5b8062fdd58e1461015c57806301ffc9a71461018257806302fe5305146101a55780630e89341c146101ba578063156e29f6146101da578063248a9ca3146101ed575b600080fd5b61016f61016a3660046114ab565b61038a565b6040519081526020015b60405180910390f35b6101956101903660046114eb565b610423565b6040519015158152602001610179565b6101b86101b33660046115a9565b61042e565b005b6101cd6101c83660046115fa565b610453565b6040516101799190611663565b6101b86101e8366004611676565b6104e7565b61016f6101fb3660046115fa565b60009081526003602052604090206001015490565b6101b861021e3660046116a9565b610564565b61016f600080516020611fd683398151915281565b6101b86102463660046116a9565b610594565b6101b8610259366004611779565b6105c4565b6101b861026c366004611823565b610610565b6101b861027f3660046116a9565b61063a565b6101b8610292366004611823565b61066a565b6102aa6102a53660046118bc565b6106e4565b604051610179919061195b565b6101956102c5366004611823565b61080e565b61016f600081565b6101b86102e036600461196e565b610839565b6101b86102f33660046116a9565b610844565b6101b8610874565b6101b861030e366004611823565b6108a7565b6101956103213660046119aa565b6001600160a01b03918216600090815260016020908152604080832093909416825291909152205460ff1690565b6101b861035d3660046119d4565b6108cc565b6101b8610370366004611a5c565b610968565b61016f600080516020611fb683398151915281565b60006001600160a01b0383166103fa5760405162461bcd60e51b815260206004820152602a60248201527f455243313135353a2061646472657373207a65726f206973206e6f742061207660448201526930b634b21037bbb732b960b11b60648201526084015b60405180910390fd5b506000818152602081815260408083206001600160a01b03861684529091529020545b92915050565b600061041d826109ad565b600080516020611fd6833981519152610446816109d2565b61044f826109dc565b5050565b60606002805461046290611ac1565b80601f016020809104026020016040519081016040528092919081815260200182805461048e90611ac1565b80156104db5780601f106104b0576101008083540402835291602001916104db565b820191906000526020600020905b8154815290600101906020018083116104be57829003601f168201915b50505050509050919050565b600080516020611fb68339815191526104ff816109d2565b61051a848484604051806020016040528060008152506109e8565b82846001600160a01b03167f880d34614efaed1ee358666333892d834e1acaa9c3bff4e17ed5ccc81909dcd28460405161055691815260200190565b60405180910390a350505050565b600080516020611fd683398151915261057c816109d2565b61044f600080516020611fb683398151915283610afc565b600080516020611fd68339815191526105ac816109d2565b61044f600080516020611fd683398151915283610b82565b6001600160a01b0385163314806105e057506105e08533610321565b6105fc5760405162461bcd60e51b81526004016103f190611afb565b6106098585858585610be9565b5050505050565b60008281526003602052604090206001015461062b816109d2565b6106358383610afc565b505050565b600080516020611fd6833981519152610652816109d2565b61044f600080516020611fd683398151915283610afc565b6001600160a01b03811633146106da5760405162461bcd60e51b815260206004820152602f60248201527f416363657373436f6e74726f6c3a2063616e206f6e6c792072656e6f756e636560448201526e103937b632b9903337b91039b2b63360891b60648201526084016103f1565b61044f8282610b82565b606081518351146107495760405162461bcd60e51b815260206004820152602960248201527f455243313135353a206163636f756e747320616e6420696473206c656e677468604482015268040dad2e6dac2e8c6d60bb1b60648201526084016103f1565b6000835167ffffffffffffffff81111561076557610765611508565b60405190808252806020026020018201604052801561078e578160200160208202803683370190505b50905060005b8451811015610806576107d98582815181106107b2576107b2611b49565b60200260200101518583815181106107cc576107cc611b49565b602002602001015161038a565b8282815181106107eb576107eb611b49565b60209081029190910101526107ff81611b75565b9050610794565b509392505050565b60009182526003602090815260408084206001600160a01b0393909316845291905290205460ff1690565b61044f338383610dc6565b600080516020611fd683398151915261085c816109d2565b61044f600080516020611fb683398151915283610b82565b600080516020611fb683398151915261088c816109d2565b6108a4600080516020611fb683398151915233610b82565b50565b6000828152600360205260409020600101546108c2816109d2565b6106358383610b82565b600080516020611fb68339815191526108e4816109d2565b60005b84518110156106095761095685828151811061090557610905611b49565b602002602001015185838151811061091f5761091f611b49565b602002602001015185848151811061093957610939611b49565b6020026020010151604051806020016040528060008152506109e8565b8061096081611b75565b9150506108e7565b6001600160a01b03851633148061098457506109848533610321565b6109a05760405162461bcd60e51b81526004016103f190611afb565b6106098585858585610ea6565b60006001600160e01b03198216637965db0b60e01b148061041d575061041d82610fd0565b6108a48133611020565b600261044f8282611bd4565b6001600160a01b038416610a485760405162461bcd60e51b815260206004820152602160248201527f455243313135353a206d696e7420746f20746865207a65726f206164647265736044820152607360f81b60648201526084016103f1565b336000610a5485611079565b90506000610a6185611079565b90506000868152602081815260408083206001600160a01b038b16845290915281208054879290610a93908490611c94565b909155505060408051878152602081018790526001600160a01b03808a1692600092918716917fc3d58168c5ae7397731d063d5bbf3d657854427343f4c083240f7aacaa2d0f62910160405180910390a4610af3836000898989896110c4565b50505050505050565b610b06828261080e565b61044f5760008281526003602090815260408083206001600160a01b03851684529091529020805460ff19166001179055610b3e3390565b6001600160a01b0316816001600160a01b0316837f2f8788117e7eff1d82e926ec794901d17c78024a50270940304540a733656f0d60405160405180910390a45050565b610b8c828261080e565b1561044f5760008281526003602090815260408083206001600160a01b0385168085529252808320805460ff1916905551339285917ff6391f5c32d9c69d2a47ea670b442974b53935d1edc7fd64eb21e047a839171b9190a45050565b8151835114610c4b5760405162461bcd60e51b815260206004820152602860248201527f455243313135353a2069647320616e6420616d6f756e7473206c656e677468206044820152670dad2e6dac2e8c6d60c31b60648201526084016103f1565b6001600160a01b038416610c715760405162461bcd60e51b81526004016103f190611ca7565b3360005b8451811015610d58576000858281518110610c9257610c92611b49565b602002602001015190506000858381518110610cb057610cb0611b49565b602090810291909101810151600084815280835260408082206001600160a01b038e168352909352919091205490915081811015610d005760405162461bcd60e51b81526004016103f190611cec565b6000838152602081815260408083206001600160a01b038e8116855292528083208585039055908b16825281208054849290610d3d908490611c94565b9250508190555050505080610d5190611b75565b9050610c75565b50846001600160a01b0316866001600160a01b0316826001600160a01b03167f4a39dc06d4c0dbc64b70af90fd698a233a518aa5d07e595d983b8c0526c8f7fb8787604051610da8929190611d36565b60405180910390a4610dbe81878787878761121f565b505050505050565b816001600160a01b0316836001600160a01b031603610e395760405162461bcd60e51b815260206004820152602960248201527f455243313135353a2073657474696e6720617070726f76616c20737461747573604482015268103337b91039b2b63360b91b60648201526084016103f1565b6001600160a01b03838116600081815260016020908152604080832094871680845294825291829020805460ff191686151590811790915591519182527f17307eab39ab6107e8899845ad3d59bd9653f200f220920489ca2b5937696c31910160405180910390a3505050565b6001600160a01b038416610ecc5760405162461bcd60e51b81526004016103f190611ca7565b336000610ed885611079565b90506000610ee585611079565b90506000868152602081815260408083206001600160a01b038c16845290915290205485811015610f285760405162461bcd60e51b81526004016103f190611cec565b6000878152602081815260408083206001600160a01b038d8116855292528083208985039055908a16825281208054889290610f65908490611c94565b909155505060408051888152602081018890526001600160a01b03808b16928c821692918816917fc3d58168c5ae7397731d063d5bbf3d657854427343f4c083240f7aacaa2d0f62910160405180910390a4610fc5848a8a8a8a8a6110c4565b505050505050505050565b60006001600160e01b03198216636cdb3d1360e11b148061100157506001600160e01b031982166303a24d0760e21b145b8061041d57506301ffc9a760e01b6001600160e01b031983161461041d565b61102a828261080e565b61044f57611037816112da565b6110428360206112ec565b604051602001611053929190611d64565b60408051601f198184030181529082905262461bcd60e51b82526103f191600401611663565b604080516001808252818301909252606091600091906020808301908036833701905050905082816000815181106110b3576110b3611b49565b602090810291909101015292915050565b6001600160a01b0384163b15610dbe5760405163f23a6e6160e01b81526001600160a01b0385169063f23a6e61906111089089908990889088908890600401611dd9565b6020604051808303816000875af1925050508015611143575060408051601f3d908101601f1916820190925261114091810190611e1e565b60015b6111ef5761114f611e3b565b806308c379a0036111885750611163611e57565b8061116e575061118a565b8060405162461bcd60e51b81526004016103f19190611663565b505b60405162461bcd60e51b815260206004820152603460248201527f455243313135353a207472616e7366657220746f206e6f6e2d455243313135356044820152732932b1b2b4bb32b91034b6b83632b6b2b73a32b960611b60648201526084016103f1565b6001600160e01b0319811663f23a6e6160e01b14610af35760405162461bcd60e51b81526004016103f190611ee1565b6001600160a01b0384163b15610dbe5760405163bc197c8160e01b81526001600160a01b0385169063bc197c81906112639089908990889088908890600401611f29565b6020604051808303816000875af192505050801561129e575060408051601f3d908101601f1916820190925261129b91810190611e1e565b60015b6112aa5761114f611e3b565b6001600160e01b0319811663bc197c8160e01b14610af35760405162461bcd60e51b81526004016103f190611ee1565b606061041d6001600160a01b03831660145b606060006112fb836002611f87565b611306906002611c94565b67ffffffffffffffff81111561131e5761131e611508565b6040519080825280601f01601f191660200182016040528015611348576020820181803683370190505b509050600360fc1b8160008151811061136357611363611b49565b60200101906001600160f81b031916908160001a905350600f60fb1b8160018151811061139257611392611b49565b60200101906001600160f81b031916908160001a90535060006113b6846002611f87565b6113c1906001611c94565b90505b6001811115611439576f181899199a1a9b1b9c1cb0b131b232b360811b85600f16601081106113f5576113f5611b49565b1a60f81b82828151811061140b5761140b611b49565b60200101906001600160f81b031916908160001a90535060049490941c9361143281611f9e565b90506113c4565b5083156114885760405162461bcd60e51b815260206004820181905260248201527f537472696e67733a20686578206c656e67746820696e73756666696369656e7460448201526064016103f1565b9392505050565b80356001600160a01b03811681146114a657600080fd5b919050565b600080604083850312156114be57600080fd5b6114c78361148f565b946020939093013593505050565b6001600160e01b0319811681146108a457600080fd5b6000602082840312156114fd57600080fd5b8135611488816114d5565b634e487b7160e01b600052604160045260246000fd5b601f8201601f1916810167ffffffffffffffff8111828210171561154457611544611508565b6040525050565b600067ffffffffffffffff83111561156557611565611508565b60405161157c601f8501601f19166020018261151e565b80915083815284848401111561159157600080fd5b83836020830137600060208583010152509392505050565b6000602082840312156115bb57600080fd5b813567ffffffffffffffff8111156115d257600080fd5b8201601f810184136115e357600080fd5b6115f28482356020840161154b565b949350505050565b60006020828403121561160c57600080fd5b5035919050565b60005b8381101561162e578181015183820152602001611616565b50506000910152565b6000815180845261164f816020860160208601611613565b601f01601f19169290920160200192915050565b6020815260006114886020830184611637565b60008060006060848603121561168b57600080fd5b6116948461148f565b95602085013595506040909401359392505050565b6000602082840312156116bb57600080fd5b6114888261148f565b600067ffffffffffffffff8211156116de576116de611508565b5060051b60200190565b600082601f8301126116f957600080fd5b81356020611706826116c4565b604051611713828261151e565b83815260059390931b850182019282810191508684111561173357600080fd5b8286015b8481101561174e5780358352918301918301611737565b509695505050505050565b600082601f83011261176a57600080fd5b6114888383356020850161154b565b600080600080600060a0868803121561179157600080fd5b61179a8661148f565b94506117a86020870161148f565b9350604086013567ffffffffffffffff808211156117c557600080fd5b6117d189838a016116e8565b945060608801359150808211156117e757600080fd5b6117f389838a016116e8565b9350608088013591508082111561180957600080fd5b5061181688828901611759565b9150509295509295909350565b6000806040838503121561183657600080fd5b823591506118466020840161148f565b90509250929050565b600082601f83011261186057600080fd5b8135602061186d826116c4565b60405161187a828261151e565b83815260059390931b850182019282810191508684111561189a57600080fd5b8286015b8481101561174e576118af8161148f565b835291830191830161189e565b600080604083850312156118cf57600080fd5b823567ffffffffffffffff808211156118e757600080fd5b6118f38683870161184f565b9350602085013591508082111561190957600080fd5b50611916858286016116e8565b9150509250929050565b600081518084526020808501945080840160005b8381101561195057815187529582019590820190600101611934565b509495945050505050565b6020815260006114886020830184611920565b6000806040838503121561198157600080fd5b61198a8361148f565b91506020830135801515811461199f57600080fd5b809150509250929050565b600080604083850312156119bd57600080fd5b6119c68361148f565b91506118466020840161148f565b6000806000606084860312156119e957600080fd5b833567ffffffffffffffff80821115611a0157600080fd5b611a0d8783880161184f565b94506020860135915080821115611a2357600080fd5b611a2f878388016116e8565b93506040860135915080821115611a4557600080fd5b50611a52868287016116e8565b9150509250925092565b600080600080600060a08688031215611a7457600080fd5b611a7d8661148f565b9450611a8b6020870161148f565b93506040860135925060608601359150608086013567ffffffffffffffff811115611ab557600080fd5b61181688828901611759565b600181811c90821680611ad557607f821691505b602082108103611af557634e487b7160e01b600052602260045260246000fd5b50919050565b6020808252602e908201527f455243313135353a2063616c6c6572206973206e6f7420746f6b656e206f776e60408201526d195c881bdc88185c1c1c9bdd995960921b606082015260800190565b634e487b7160e01b600052603260045260246000fd5b634e487b7160e01b600052601160045260246000fd5b600060018201611b8757611b87611b5f565b5060010190565b601f82111561063557600081815260208120601f850160051c81016020861015611bb55750805b601f850160051c820191505b81811015610dbe57828155600101611bc1565b815167ffffffffffffffff811115611bee57611bee611508565b611c0281611bfc8454611ac1565b84611b8e565b602080601f831160018114611c375760008415611c1f5750858301515b600019600386901b1c1916600185901b178555610dbe565b600085815260208120601f198616915b82811015611c6657888601518255948401946001909101908401611c47565b5085821015611c845787850151600019600388901b60f8161c191681555b5050505050600190811b01905550565b8082018082111561041d5761041d611b5f565b60208082526025908201527f455243313135353a207472616e7366657220746f20746865207a65726f206164604082015264647265737360d81b606082015260800190565b6020808252602a908201527f455243313135353a20696e73756666696369656e742062616c616e636520666f60408201526939103a3930b739b332b960b11b606082015260800190565b604081526000611d496040830185611920565b8281036020840152611d5b8185611920565b95945050505050565b7f416363657373436f6e74726f6c3a206163636f756e7420000000000000000000815260008351611d9c816017850160208801611613565b7001034b99036b4b9b9b4b733903937b6329607d1b6017918401918201528351611dcd816028840160208801611613565b01602801949350505050565b6001600160a01b03868116825285166020820152604081018490526060810183905260a060808201819052600090611e1390830184611637565b979650505050505050565b600060208284031215611e3057600080fd5b8151611488816114d5565b600060033d1115611e545760046000803e5060005160e01c5b90565b600060443d1015611e655790565b6040516003193d81016004833e81513d67ffffffffffffffff8160248401118184111715611e9557505050505090565b8285019150815181811115611ead5750505050505090565b843d8701016020828501011115611ec75750505050505090565b611ed66020828601018761151e565b509095945050505050565b60208082526028908201527f455243313135353a204552433131353552656365697665722072656a656374656040820152676420746f6b656e7360c01b606082015260800190565b6001600160a01b0386811682528516602082015260a060408201819052600090611f5590830186611920565b8281036060840152611f678186611920565b90508281036080840152611f7b8185611637565b98975050505050505050565b808202811582820484141761041d5761041d611b5f565b600081611fad57611fad611b5f565b50600019019056fef0887ba65ee2024ea881d91b74c2450ef19e1557f03bed3ea9f16b037cbe2dc9df8b4c520ffe197c5343c6f5aec59570151ef9a492f2c624fd45ddde6135ec42a2646970667358221220f8d6f8218f57299f6c5086bf22a4c84d9543c1107c809b45649e30938bcf5ebf64736f6c63430008130033",
    "linkReferences": {}
  },
  "methodIdentifiers": {
    "ADMIN()": "2a0acc6a",
    "DEFAULT_ADMIN_ROLE()": "a217fddf",
    "MINTER()": "fe6d8124",
    "balanceOf(address,uint256)": "00fdd58e",
    "balanceOfBatch(address[],uint256[])": "4e1273f4",
    "exitMinterRole()": "d5000072",
    "getRoleAdmin(bytes32)": "248a9ca3",
    "grantAdmin(address)": "35bb3e16",
    "grantMinter(address)": "261707fa",
    "grantRole(bytes32,address)": "2f2ff15d",
    "hasRole(bytes32,address)": "91d14854",
    "isApprovedForAll(address,address)": "e985e9c5",
    "mint(address,uint256,uint256)": "156e29f6",
    "multiAddressMint(address[],uint256[],uint256[])": "f0200780",
    "renounceRole(bytes32,address)": "36568abe",
    "revokeAdmin(address)": "2d345670",
    "revokeMinter(address)": "cfbd4885",
    "revokeRole(bytes32,address)": "d547741f",
    "safeBatchTransferFrom(address,address,uint256[],uint256[],bytes)": "2eb2c2d6",
    "safeTransferFrom(address,address,uint256,uint256,bytes)": "f242432a",
    "setApprovalForAll(address,bool)": "a22cb465",
    "setURI(string)": "02fe5305",
    "supportsInterface(bytes4)": "01ffc9a7",
    "uri(uint256)": "0e89341c"
  },
  "id": 34
}